:1000000015C0C5C02CC02BC02AC029C028C027C01D
:10001000D0C025C038C03BC03EC041C044C047C06E
:100020004AC04EC051C054C058C05CC011241FBE4D
:10003000CFE9CDBF20E0A4E6B0E001C01D92AD360F
:10004000B207E1F710E0A0E6B0E0E2E4F3E002C0BE
:1000500005900D92A436B107D9F7BCD070C1D0CFAE
:1000600087B3827E87BB88B3827E88BB0895CF9397
:10007000DF93EC01F5DFCC30D105C0F5FE01E65F82
:10008000FF4F87B30994856087BBC09A24C0856001
:1000900087BBC29A2AC08C6087BBC29A0FC08C6093
:1000A00087BBC39A18C0886187BBC39A19C088618F
:1000B00087BBC49A03C0896087BBC09AC39816C027
:1000C000896087BBC39A11C0846187BBC29A08C08C
:1000D000846187BBC49AC29809C0816187BBC09AFA
:1000E000C49804C0816187BBC49AC098DF91CF9146
:1000F0000895CF92DF92EF92FF920F931F93CF93C9
:10010000DF936C017B0180916000D82FD295D07F66
:1001100080E0C82F00E010E00C171D07CCF4C601EA
:10012000A6DF000000000000F7FC03C0C7019FDF4E
:1001300001C096DF000000000000F7FE91DF000024
:10014000000000000000000000000F5F1F4FE4CF20
:10015000DF91CF911F910F91FF90EF90DF90CF90A3
:1001600008950F931F93CF93DF9300E010E1C0E059
:10017000D0E0CE017CDF2196CC30D105D1F7015003
:100180001109A9F7DF91CF911F910F9108951F9247
:100190000F920FB60F9211248F9385B78F7D85BF75
:1001A00081E0809362008F910F900FBE0F901F909F
:1001B0001895EF93EFB7EF930F93E8E600810D4E9C
:1001C00002C000810F4F0193E0F70F91EF91EFBF55
:1001D000EF91189583E083BF8FBD80E481BD789453
:1001E000C19AB99880916200882339F0F8941092EE
:1001F00062001092670010926600B19937C080913A
:100200006600909167000196909367008093660066
:100210008AE090E0EFE5F9E03197F1F700C00000E7
:100220000197C1F78091660090916700843691052F
:100230006CF0809164009091650001969093650048
:1002400080936400109267001092660080916400B1
:10025000909165000C9724F0109265001092640054
:10026000809164009091650002DFBCCF80916400B2
:10027000909165008A3091056CF48530910564F5A4
:1002800097FD58C001969093610080936000C0E094
:10029000D0E00CC08A30910509F442C00B9709F0F8
:1002A00049C05FDFDDDE84E690E03CC06FEF7FEFAA
:1002B000CE011FDF2196CC30D105C1F7CBE0D0E0D5
:1002C0006FEF7FEFCE0115DF2197D0F76FEF7FEF54
:1002D0008BE090E00EDF2EC0049790936100809336
:1002E000600080E090E0EC012196CC30D10519F45B
:1002F00060E070E001C0BE01FCDECE012C9799F7F2
:100300006FEF7FEFEB0121966F3F8FEF780711F4CE
:100310006BE070E0CE01EDDEBE012B9799F7D6CFF2
:1003200020DF08C0EFE5F9E03197F1F700C00000E9
:100330000197C1F7109267001092660053CFF894AE
:02034000FFCFED
:0403420001000100B5
:00000001FF
